{
  "_format": "hh-sol-artifact-1",
  "contractName": "CreateCouponsAndSendNFTs",
  "sourceName": "contracts/coupon.sol",
  "abi": [
    {
      "anonymous": false,
      "inputs": [
        {
          "indexed": false,
          "internalType": "string",
          "name": "identifier",
          "type": "string"
        },
        {
          "indexed": false,
          "internalType": "address",
          "name": "owner",
          "type": "address"
        },
        {
          "indexed": false,
          "internalType": "uint256",
          "name": "pricePerCoupon",
          "type": "uint256"
        },
        {
          "indexed": false,
          "internalType": "uint256",
          "name": "numOfRedeems",
          "type": "uint256"
        }
      ],
      "name": "NewCouponItem",
      "type": "event"
    },
    {
      "inputs": [
        {
          "internalType": "string",
          "name": "Ihash",
          "type": "string"
        }
      ],
      "name": "claimCheck",
      "outputs": [
        {
          "internalType": "bool",
          "name": "",
          "type": "bool"
        }
      ],
      "stateMutability": "view",
      "type": "function"
    },
    {
      "inputs": [
        {
          "internalType": "uint256",
          "name": "_price",
          "type": "uint256"
        },
        {
          "internalType": "uint256",
          "name": "_num",
          "type": "uint256"
        },
        {
          "internalType": "string",
          "name": "identifierHash",
          "type": "string"
        }
      ],
      "name": "createCoupons",
      "outputs": [],
      "stateMutability": "payable",
      "type": "function"
    },
    {
      "inputs": [
        {
          "internalType": "string",
          "name": "Ihash",
          "type": "string"
        }
      ],
      "name": "getRemainingPool",
      "outputs": [
        {
          "internalType": "uint256",
          "name": "",
          "type": "uint256"
        }
      ],
      "stateMutability": "view",
      "type": "function"
    },
    {
      "inputs": [
        {
          "internalType": "string",
          "name": "Ihash",
          "type": "string"
        }
      ],
      "name": "reclaimCoupons",
      "outputs": [
        {
          "internalType": "bool",
          "name": "",
          "type": "bool"
        }
      ],
      "stateMutability": "nonpayable",
      "type": "function"
    },
    {
      "inputs": [
        {
          "internalType": "string",
          "name": "Ihash",
          "type": "string"
        }
      ],
      "name": "redeemCoupon",
      "outputs": [],
      "stateMutability": "nonpayable",
      "type": "function"
    }
  ],
  "bytecode": "0x608060405234801561001057600080fd5b50610963806100206000396000f3fe60806040526004361061004a5760003560e01c806344064b201461004f5780636cc866e8146100845780639384ed08146100a6578063aff7d7cd146100d4578063c72986d9146100e7575b600080fd5b34801561005b57600080fd5b5061006f61006a36600461076b565b610107565b60405190151581526020015b60405180910390f35b34801561009057600080fd5b506100a461009f36600461076b565b61013a565b005b3480156100b257600080fd5b506100c66100c136600461076b565b610374565b60405190815260200161007b565b6100a46100e23660046107a6565b6103c9565b3480156100f357600080fd5b5061006f61010236600461076b565b6104fa565b600060018260405161011991906107f4565b9081526040519081900360200190205460ff600160a01b9091041692915050565b6000808260405161014b91906107f4565b908152602001604051809103902060030154116101c25760405162461bcd60e51b815260206004820152602a60248201527f74686520636f75706f6e20686173207265616368656420746865206d6178696d604482015269756d2072656465656d7360b01b60648201526084015b60405180910390fd5b6001816040516101d291906107f4565b9081526040519081900360200190205460ff600160a01b90910416156102325760405162461bcd60e51b81526020600482015260156024820152747573657220616c726561647920636c61696d65642160581b60448201526064016101b9565b600160008260405161024491906107f4565b908152602001604051809103902060030154610260919061087f565b60008260405161027091906107f4565b9081526020016040518091039020600301819055506001808260405161029691906107f4565b9081526040519081900360200181208054921515600160a01b0260ff60a01b19909316929092179091556000908190339082906102d49086906107f4565b9081526040519081900360200181206002015490600081818185875af1925050503d8060008114610321576040519150601f19603f3d011682016040523d82523d6000602084013e610326565b606091505b50915091508161036f5760405162461bcd60e51b81526020600482015260146024820152732330b4b632b2103a379039b2b7321022ba3432b960611b60448201526064016101b9565b505050565b6000808260405161038591906107f4565b9081526020016040518091039020600201546000836040516103a791906107f4565b9081526020016040518091039020600301546103c39190610860565b92915050565b6103d38284610860565b34146104175760405162461bcd60e51b8152602060048201526013602482015272696e73756666696369656e7420746f6b656e7360681b60448201526064016101b9565b6040518060800160405280828152602001336001600160a01b031681526020018481526020018381525060008260405161045191906107f4565b9081526020016040518091039020600082015181600001908051906020019061047b92919061064b565b5060208201516001820180546001600160a01b0319166001600160a01b039092169190911790556040808301516002830155606090920151600390910155517f123819c1d374538d0739e3e027fad8ff6b831d9dec9514d858b45b25ddf1b649906104ed908390339087908790610810565b60405180910390a1505050565b6000808260405161050b91906107f4565b90815260405190819003602001902060010154336001600160a01b03909116146105705760405162461bcd60e51b81526020600482015260166024820152751e5bdd48185c99481b9bdd08185d5d1a1bdc9a5e995960521b60448201526064016101b9565b6000808360405161058191906107f4565b9081526020016040518091039020600201549050600080846040516105a691906107f4565b90815260405190819003602001902060030154905060006105c78284610860565b90506000806000876040516105dc91906107f4565b908152604051908190036020018120600101546001600160a01b031690849060006040518083038185875af1925050503d8060008114610638576040519150601f19603f3d011682016040523d82523d6000602084013e61063d565b606091505b509098975050505050505050565b828054610657906108c6565b90600052602060002090601f01602090048101928261067957600085556106bf565b82601f1061069257805160ff19168380011785556106bf565b828001600101855582156106bf579182015b828111156106bf5782518255916020019190600101906106a4565b506106cb9291506106cf565b5090565b5b808211156106cb57600081556001016106d0565b600082601f8301126106f4578081fd5b813567ffffffffffffffff8082111561070f5761070f610917565b604051601f8301601f19908116603f0116810190828211818310171561073757610737610917565b8160405283815286602085880101111561074f578485fd5b8360208701602083013792830160200193909352509392505050565b60006020828403121561077c578081fd5b813567ffffffffffffffff811115610792578182fd5b61079e848285016106e4565b949350505050565b6000806000606084860312156107ba578182fd5b8335925060208401359150604084013567ffffffffffffffff8111156107de578182fd5b6107ea868287016106e4565b9150509250925092565b60008251610806818460208701610896565b9190910192915050565b608081526000855180608084015261082f8160a0850160208a01610896565b6001600160a01b03959095166020830152506040810192909252606082015260a0601f909201601f19160101919050565b600081600019048311821515161561087a5761087a610901565b500290565b60008282101561089157610891610901565b500390565b60005b838110156108b1578181015183820152602001610899565b838111156108c0576000848401525b50505050565b600181811c908216806108da57607f821691505b602082108114156108fb57634e487b7160e01b600052602260045260246000fd5b50919050565b634e487b7160e01b600052601160045260246000fd5b634e487b7160e01b600052604160045260246000fdfea2646970667358221220208271559272dc584bcd64b44654275e51cc6cf7c3a58b74302a3b60a8c497bf64736f6c63430008040033",
  "linkReferences": {},
  "deployedLinkReferences": {}
}